:1000000045EF02F0F76A140FF66E000EF7220900B2
:10001000F5501200280C01064E454D3A20002052A2
:1000200045463A00202041204D4F544F5220414B2D
:10003000544946200000202042204D4F544F52206A
:10004000414B544946200000EA6A1E0EE96EEF500B
:100050000DE0020E016E006A002EFED7012EFBD7C6
:10006000970E006E002EFED7EF2EF3D7120025B0AC
:1000700002D08C9601D08C86959625B202D08C98B1
:1000800001D08C88959825B402D08C9A01D08C8AA6
:10009000959A25B602D08C9C01D08C8C959C000042
:1000A0008C84959400D000D08C9495941200266A8C
:1000B0009586000E83B6010E26129588000E83B831
:1000C000010E006ED890003600502612958A000E60
:1000D00083BA010E006E00360036FC0E001600508A
:1000E0002612958C000E83BC010E006E0036003681
:1000F0000036F80E00160050261226C001F012003D
:1001000095869588958A958C8C82959200008C8432
:1001100095940000CCDF01C025F08C9495940000EC
:100120008C84959400D0C3DF01C024F08C94959406
:1001300095969598959A959C2538006EF00E001628
:1001400000502410016EABEF00F0959495909592BD
:100150008C909590D5D701C024F001BEFBD72252D8
:1001600002E18C9001D08C80959000008C92959249
:1001700000008C9495942338246E0F0E241624C00E
:1001800025F075DF23500F0B246E256E70DF1200F3
:1001900095969598959A959C9594959095928C9016
:1001A00095908C9295928C9495940F0E1E6E4CDFC8
:1001B000010E146E1450030808E3030E256E57DF7A
:1001C000050E1E6E41DF142AF5D7020E256E4FDF95
:1001D000050E1E6E39DF146A145003080EE3036A1D
:1001E0001450F2CF15F0F29E0DDF15BEF28E156E93
:1001F000226A236EAADF142AEFD75FEF02F09390F2
:100200008190190E1E6E20DF8180130E006E002E6D
:10021000FED700D0938068EF02F01A0E006E002E19
:10022000FED7000081B010D0340E006E002EFED735
:1002300000D0000081A008D0200E006E002EFED756
:1002400000D00000010E016E69EF02F0166A0EA0E8
:10025000146A145007083EE3156A81B008D0152AC5
:100260001550640802E20E8002D000D0F6D7130EBB
:10027000006E002EFED700D081B011D0070ED880BE
:100280001454176E010E006E1750016E04E0D890E2
:100290000036012EFCD70050FF0A161619D0070EA3
:1002A000D8801454176E010E006E1750016E04E0D2
:1002B000D8900036012EFCD70050161281A008D02D
:1002C000152A1550640802E20E8002D000D0F6D73D
:1002D000142ABFD716C001F012001F2C01D003D082
:1002E000400E206E01D0206A010E1E5C2026205098
:1002F0008009216E226A236E28DF12001D50070A32
:1003000007E00B0A0AE0060A10E0020A14E018D01F
:10031000010E1E6E1F6EE1DF18D0226A010E236EE1
:1003200014DF020E1E6E90DE10D0010E1E6E020E45
:100330001F6ED3DF0AD0226A100E236E06DF05D0AF
:10034000010E226E1DC023F000DF12000900F552DD
:100350000CE0F6CF14F0F7CF15F0F5CF1DF0CEDF9F
:1003600014C0F6FF15C0F7FFF1D71200EACF1CF05A
:10037000E9CF1BF01538F009176E1726E20F186E3B
:10038000320F1A6E15500F0B182618261A26E90F71
:10039000196E1926192614380F0B19261A26193624
:1003A0001A361A1E1A3614500F0B1A261736070E55
:1003B000166E0A0E19061A26FDE318061926FDE325
:1003C00017061826FDE316061726FDE3EA6A160E41
:1003D000E96E070E1B141B9CE9261A0EE95CD8B4C3
:1003E0001B8CEF50006E08E11BBC06D01BB813D06D
:1003F0001BB602D0200E03D01B861B98300E0026A1
:10040000EACF15F0E9CF14F000C01DF077DF15C07A
:10041000EAFF14C0E9FFEE501BACDFD71200145006
:10042000070B006E1430016E013201321F0E0116EF
:1004300001501624E96E000E1720EA6E016A012AA7
:10044000002A01D00136002EFDD7155203E00150DD
:10045000EF1203D0011E0150EF1612001450070BCB
:10046000006E1430016E013201321F0E0116015070
:100470001524E96E000E1620EA6EEFCF01F0002A77
:1004800001D00132002EFDD71200F86AD09E056A15
:100490005A0E046E0B0E066E0C0E076E0C6A010EE1
:1004A0000D6EC150C00B0F09C16E070EB46E700EF9
:1004B000D36ED350C150C00B0F09C16E69D6040E64
:1004C000146EFA0E1E6EC0DD142EFBD70E9097D65A
:1004D000A4D60152D8B4D1D0B9DE01C011F0B6DE35
:1004E00001C012F0B3DE01C00FF0B0DE01C010F0A9
:1004F000ADDE01C013F0125011240F241024135C40
:10050000D8A4BBD00B6A0FC00AF0096A11C008F06A
:10051000660E1D6EF3DE010E1E6E1F6EDEDE180E01
:10052000F66E000EF76E12DF020EE96E09C015F0CE
:1005300008C014F01BDF1E0EF66E000EF76E06DF0D
:10054000020EE96E05C015F004C014F00FDF06C0FE
:1005500014F0010E156E0F0E176E920E166E5FDF01
:1005600006C014F00F0E166E800E156E77DF01A018
:100570000DD0042AD8B4052A055203E104506408BA
:1005800002E2056A046A010E1E6E5EDD07C014F009
:10059000010E156E0F0E176E920E166E40DF07C01D
:1005A00014F00F0E166E800E156E58DF01A007D0E6
:1005B0000450D8B405060406010E1E6E45DD055034
:1005C000095C30E303E10850045C2CE20CC014F039
:1005D000010E156E0F0E176E890E166E20DF0CC001
:1005E00014F0156A0F0E176E920E166E18DF0DC0FE
:1005F00014F0156A0F0E176E890E166E10DF0DC0FF
:1006000014F0156A0F0E176E920E166E08DF010EAB
:100610001E6E020E1F6E61DE240EF66E000EF76E69
:1006200095DE2BD00CC014F0156A0F0E176E890ED4
:10063000166EF5DE0CC014F0156A0F0E176E920ED2
:10064000166EEDDE0DC014F0010E156E0F0E176E56
:10065000890E166EE4DE0DC014F0156A0F0E176ECB
:10066000920E166EDCDE010E1E6E020E1F6E35DE61
:0E067000360EF66E000EF76E69DE21D703001F
:020000040030CA
:0E00000000C8180E0007B10003C003E0034063
:00000001FF
;PIC18F4321
;CRC=0407  CREATED="13-Oca-23 21:57"
